{
  "transactions": [
    {
      "hash": "0x8a14fcd9906e66567dc65c08ec19f8e0104522287f2c2d5307e8229e0fd7d586",
      "transactionType": "CALL",
      "contractName": null,
      "contractAddress": "0x590a3b7a061a35876c102894c965ed19a7e88ab5",
      "function": "unlock(bytes16)",
      "arguments": [
        "0xfb3483dd495e6112da3a3bd5b98cc9c700000000000000000000000000000000"
      ],
      "transaction": {
        "from": "0xe3885ee49ffbdc52bb9c9183aad6e4fbe291c5a5",
        "to": "0x590a3b7a061a35876c102894c965ed19a7e88ab5",
        "gas": "0x94ad",
        "value": "0x0",
        "input": "0xe1afb08cfb3483dd495e6112da3a3bd5b98cc9c700000000000000000000000000000000",
        "nonce": "0x91",
        "chainId": "0xaa36a7"
      },
      "additionalContracts": [],
      "isFixedGasLimit": false
    }
  ],
  "receipts": [
    {
      "status": "0x1",
      "cumulativeGasUsed": "0x192f72b",
      "logs": [],
      "logsBloom": "0x00000000000000000000000000000000000000000000000000000000000000000000000000000000000000000000000000000000000000000000000000000000000000000000000000000000000000000000000000000000000000000000000000000000000000000000000000000000000000000000000000000000000000000000000000000000000000000000000000000000000000000000000000000000000000000000000000000000000000000000000000000000000000000000000000000000000000000000000000000000000000000000000000000000000000000000000000000000000000000000000000000000000000000000000000000000",
      "type": "0x2",
      "transactionHash": "0x8a14fcd9906e66567dc65c08ec19f8e0104522287f2c2d5307e8229e0fd7d586",
      "transactionIndex": "0xc9",
      "blockHash": "0x253f8d5631136f34a1abf8cf181fe60cec456086071ea40a13d7ade75ed0b855",
      "blockNumber": "0x5adf54",
      "gasUsed": "0x65a9",
      "effectiveGasPrice": "0x11d20956e",
      "from": "0xe3885ee49ffbdc52bb9c9183aad6e4fbe291c5a5",
      "to": "0x590a3b7a061a35876c102894c965ed19a7e88ab5",
      "contractAddress": null
    }
  ],
  "libraries": [],
  "pending": [],
  "returns": {},
  "timestamp": 1716390819,
  "chain": 11155111,
  "commit": "8b4fecf"
}