{
  "transactions": [
    {
      "hash": "0x59325192f5d75dc5ec18623ae8d8a048d93280e1c71088b296cdaf3f6f2901e2",
      "transactionType": "CALL",
      "contractName": null,
      "contractAddress": "0x590a3b7a061a35876c102894c965ed19a7e88ab5",
      "function": "unlock(bytes16)",
      "arguments": [
        "0xfb3483dd495e6112da3a3bd5b98cc9c700000000000000000000000000000000"
      ],
      "transaction": {
        "from": "0xe3885ee49ffbdc52bb9c9183aad6e4fbe291c5a5",
        "to": "0x590a3b7a061a35876c102894c965ed19a7e88ab5",
        "gas": "0x8940",
        "value": "0x0",
        "input": "0xe1afb08cfb3483dd495e6112da3a3bd5b98cc9c700000000000000000000000000000000",
        "nonce": "0x90",
        "chainId": "0xaa36a7"
      },
      "additionalContracts": [],
      "isFixedGasLimit": false
    }
  ],
  "receipts": [
    {
      "status": "0x1",
      "cumulativeGasUsed": "0xcc0ef9",
      "logs": [],
      "logsBloom": "0x00000000000000000000000000000000000000000000000000000000000000000000000000000000000000000000000000000000000000000000000000000000000000000000000000000000000000000000000000000000000000000000000000000000000000000000000000000000000000000000000000000000000000000000000000000000000000000000000000000000000000000000000000000000000000000000000000000000000000000000000000000000000000000000000000000000000000000000000000000000000000000000000000000000000000000000000000000000000000000000000000000000000000000000000000000000",
      "type": "0x2",
      "transactionHash": "0x59325192f5d75dc5ec18623ae8d8a048d93280e1c71088b296cdaf3f6f2901e2",
      "transactionIndex": "0x55",
      "blockHash": "0xfb6c80ed70f23220541b9af86e25e807dd53798d41b8527ff6e8a2657a7a2578",
      "blockNumber": "0x5adf42",
      "gasUsed": "0x5dd9",
      "effectiveGasPrice": "0x13da3cca8",
      "from": "0xe3885ee49ffbdc52bb9c9183aad6e4fbe291c5a5",
      "to": "0x590a3b7a061a35876c102894c965ed19a7e88ab5",
      "contractAddress": null
    }
  ],
  "libraries": [],
  "pending": [],
  "returns": {},
  "timestamp": 1716390583,
  "chain": 11155111,
  "commit": "d99059d"
}